{
  "contractName": "Insurance",
  "abi": [
    {
      "constant": true,
      "inputs": [],
      "name": "totalPoints",
      "outputs": [
        {
          "name": "",
          "type": "uint256"
        }
      ],
      "payable": false,
      "stateMutability": "view",
      "type": "function"
    },
    {
      "constant": true,
      "inputs": [],
      "name": "insuranceTypesCount",
      "outputs": [
        {
          "name": "",
          "type": "uint256"
        }
      ],
      "payable": false,
      "stateMutability": "view",
      "type": "function"
    },
    {
      "constant": true,
      "inputs": [
        {
          "name": "",
          "type": "address"
        }
      ],
      "name": "passengers",
      "outputs": [
        {
          "name": "",
          "type": "bool"
        }
      ],
      "payable": false,
      "stateMutability": "view",
      "type": "function"
    },
    {
      "constant": true,
      "inputs": [
        {
          "name": "",
          "type": "uint256"
        }
      ],
      "name": "types",
      "outputs": [
        {
          "name": "id",
          "type": "uint256"
        },
        {
          "name": "name",
          "type": "string"
        },
        {
          "name": "active",
          "type": "bool"
        },
        {
          "name": "points",
          "type": "uint256"
        },
        {
          "name": "cost",
          "type": "string"
        }
      ],
      "payable": false,
      "stateMutability": "view",
      "type": "function"
    },
    {
      "inputs": [],
      "payable": false,
      "stateMutability": "nonpayable",
      "type": "constructor"
    },
    {
      "anonymous": false,
      "inputs": [
        {
          "indexed": true,
          "name": "_insuranceId",
          "type": "uint256"
        }
      ],
      "name": "boughtInsurance",
      "type": "event"
    },
    {
      "constant": false,
      "inputs": [
        {
          "name": "_insuranceId",
          "type": "uint256"
        }
      ],
      "name": "buy",
      "outputs": [],
      "payable": false,
      "stateMutability": "nonpayable",
      "type": "function"
    }
  ],
  "bytecode": "0x608060405234801561001057600080fd5b506100966040805190810160405280600781526020017f4f6e652d57617900000000000000000000000000000000000000000000000000815250600a6040805190810160405280600f81526020017f534744243230206f72204c503130300000000000000000000000000000000000815250610120640100000000026401000000009004565b61011b6040805190810160405280600a81526020017f526f756e642d5472697000000000000000000000000000000000000000000000815250601e6040805190810160405280600f81526020017f534744243330206f72204c503135300000000000000000000000000000000000815250610120640100000000026401000000009004565b61028f565b60026000815480929190600101919050555060a06040519081016040528060025481526020018481526020016000151581526020018381526020018281525060016000600254815260200190815260200160002060008201518160000155602082015181600101908051906020019061019a9291906101ea565b5060408201518160020160006101000a81548160ff0219169083151502179055506060820151816003015560808201518160040190805190602001906101e19291906101ea565b50905050505050565b828054600181600116156101000203166002900490600052602060002090601f016020900481019282601f1061022b57805160ff1916838001178555610259565b82800160010185558215610259579182015b8281111561025857825182559160200191906001019061023d565b5b509050610266919061026a565b5090565b61028c91905b80821115610288576000816000905550600101610270565b5090565b90565b6105968061029e6000396000f30060806040526004361061006d576000357c0100000000000000000000000000000000000000000000000000000000900463ffffffff168063567142be146100725780637c97822b1461009d578063ce164fdd146100c8578063cefbfa3614610123578063d96a094a1461024e575b600080fd5b34801561007e57600080fd5b5061008761027b565b6040518082815260200191505060405180910390f35b3480156100a957600080fd5b506100b2610281565b6040518082815260200191505060405180910390f35b3480156100d457600080fd5b50610109600480360381019080803573ffffffffffffffffffffffffffffffffffffffff169060200190929190505050610287565b604051808215151515815260200191505060405180910390f35b34801561012f57600080fd5b5061014e600480360381019080803590602001909291905050506102a7565b60405180868152602001806020018515151515815260200184815260200180602001838103835287818151815260200191508051906020019080838360005b838110156101a857808201518184015260208101905061018d565b50505050905090810190601f1680156101d55780820380516001836020036101000a031916815260200191505b50838103825284818151815260200191508051906020019080838360005b8381101561020e5780820151818401526020810190506101f3565b50505050905090810190601f16801561023b5780820380516001836020036101000a031916815260200191505b5097505050505050505060405180910390f35b34801561025a57600080fd5b506102796004803603810190808035906020019092919050505061041a565b005b60035481565b60025481565b60006020528060005260406000206000915054906101000a900460ff1681565b6001602052806000526040600020600091509050806000015490806001018054600181600116156101000203166002900480601f0160208091040260200160405190810160405280929190818152602001828054600181600116156101000203166002900480156103595780601f1061032e57610100808354040283529160200191610359565b820191906000526020600020905b81548152906001019060200180831161033c57829003601f168201915b5050505050908060020160009054906101000a900460ff1690806003015490806004018054600181600116156101000203166002900480601f0160208091040260200160405190810160405280929190818152602001828054600181600116156101000203166002900480156104105780601f106103e557610100808354040283529160200191610410565b820191906000526020600020905b8154815290600101906020018083116103f357829003601f168201915b5050505050905085565b6000803373ffffffffffffffffffffffffffffffffffffffff1673ffffffffffffffffffffffffffffffffffffffff16815260200190815260200160002060009054906101000a900460ff1615151561047257600080fd5b60008111801561048457506002548111155b151561048f57600080fd5b60016000803373ffffffffffffffffffffffffffffffffffffffff1673ffffffffffffffffffffffffffffffffffffffff16815260200190815260200160002060006101000a81548160ff021916908315150217905550600180600083815260200190815260200160002060020160006101000a81548160ff0219169083151502179055506001600082815260200190815260200160002060030154600360008282540192505081905550807f612ddfb10210438a2d5bfd386415c106ae50b7a9886cec1f4a097bd9f17285e960405160405180910390a2505600a165627a7a723058205a1f2ab2d60afed05f15120233ea6bfd5d48d009509eb2d97b3c4afb11ddebd30029",
  "source": "pragma solidity ^0.4.24;\n\ncontract Insurance {\n    struct FlightInsurance {\n        uint id;\n        string name;\n        bool active;\n        uint points;\n        string cost;\n    }\n    mapping(address => bool) public passengers;\n    mapping(uint => FlightInsurance) public types;\n    uint public insuranceTypesCount;\n    uint public totalPoints;\n\n    event boughtInsurance (\n        uint indexed _insuranceId\n    );\n\n    constructor() public {\n        addInsurance(\"One-Way\", 10, \"SGD$20 or LP100\");\n        addInsurance(\"Round-Trip\", 30, \"SGD$30 or LP150\");\n    }\n\n    function addInsurance (string _name, uint _points, string _cost) private {\n        insuranceTypesCount ++;\n        types[insuranceTypesCount] = FlightInsurance(insuranceTypesCount, _name, false, _points, _cost);\n    }\n\n    function buy (uint _insuranceId) public {\n        require(!passengers[msg.sender]);\n\n        require(_insuranceId > 0 && _insuranceId <= insuranceTypesCount);\n\n        passengers[msg.sender] = true;\n\n        types[_insuranceId].active = true;\n        totalPoints += types[_insuranceId].points;\n\n        emit boughtInsurance(_insuranceId);\n    }\n}",
  "sourcePath": "/Users/kaha/repos/DApp_Project/insurance/contracts/Insurance.sol",
  "compiler": {
    "name": "solc",
    "version": "0.4.24+commit.e67f0147.Emscripten.clang"
  },
  "schemaVersion": "2.0.1",
  "updatedAt": "2018-12-04T01:04:27.037Z"
}