{
  "contractName": "Insurance",
  "abi": [
    {
      "constant": true,
      "inputs": [
        {
          "name": "",
          "type": "int256"
        }
      ],
      "name": "types",
      "outputs": [
        {
          "name": "id",
          "type": "int256"
        },
        {
          "name": "name",
          "type": "string"
        },
        {
          "name": "active",
          "type": "bool"
        },
        {
          "name": "points",
          "type": "int256"
        },
        {
          "name": "cost",
          "type": "string"
        },
        {
          "name": "amount",
          "type": "int256"
        }
      ],
      "payable": false,
      "stateMutability": "view",
      "type": "function"
    },
    {
      "constant": true,
      "inputs": [],
      "name": "insuranceTypesCount",
      "outputs": [
        {
          "name": "",
          "type": "int256"
        }
      ],
      "payable": false,
      "stateMutability": "view",
      "type": "function"
    },
    {
      "constant": true,
      "inputs": [
        {
          "name": "",
          "type": "address"
        }
      ],
      "name": "profile",
      "outputs": [
        {
          "name": "points",
          "type": "int256"
        },
        {
          "name": "balance",
          "type": "int256"
        }
      ],
      "payable": false,
      "stateMutability": "view",
      "type": "function"
    },
    {
      "inputs": [],
      "payable": false,
      "stateMutability": "nonpayable",
      "type": "constructor"
    },
    {
      "anonymous": false,
      "inputs": [
        {
          "indexed": true,
          "name": "_from",
          "type": "address"
        },
        {
          "indexed": true,
          "name": "_to",
          "type": "address"
        },
        {
          "indexed": false,
          "name": "_value",
          "type": "int256"
        },
        {
          "indexed": true,
          "name": "_insuranceId",
          "type": "int256"
        }
      ],
      "name": "Transfer",
      "type": "event"
    },
    {
      "constant": false,
      "inputs": [
        {
          "name": "_insuranceId",
          "type": "int256"
        },
        {
          "name": "receiver",
          "type": "address"
        },
        {
          "name": "points",
          "type": "int256"
        },
        {
          "name": "amount",
          "type": "int256"
        }
      ],
      "name": "buy",
      "outputs": [],
      "payable": false,
      "stateMutability": "nonpayable",
      "type": "function"
    }
  ],
  "bytecode": "0x608060405234801561001057600080fd5b506100986040805190810160405280600781526020017f4f6e652d57617900000000000000000000000000000000000000000000000000815250600a6040805190810160405280600f81526020017f534744243230206f72204c5031303000000000000000000000000000000000008152506014610124640100000000026401000000009004565b61011f6040805190810160405280600a81526020017f526f756e642d5472697000000000000000000000000000000000000000000000815250601e6040805190810160405280600f81526020017f534744243330206f72204c503135300000000000000000000000000000000000815250601e610124640100000000026401000000009004565b6102a3565b60026000815480929190600101919050555060c06040519081016040528060025481526020018581526020016000151581526020018481526020018381526020018281525060008060025481526020019081526020016000206000820151816000015560208201518160010190805190602001906101a39291906101fe565b5060408201518160020160006101000a81548160ff0219169083151502179055506060820151816003015560808201518160040190805190602001906101ea9291906101fe565b5060a0820151816005015590505050505050565b828054600181600116156101000203166002900490600052602060002090601f016020900481019282601f1061023f57805160ff191683800117855561026d565b8280016001018555821561026d579182015b8281111561026c578251825591602001919060010190610251565b5b50905061027a919061027e565b5090565b6102a091905b8082111561029c576000816000905550600101610284565b5090565b90565b61058c806102b26000396000f300608060405260043610610062576000357c0100000000000000000000000000000000000000000000000000000000900463ffffffff16806378db2b7d146100675780637c97822b146101995780639dd9d0fd146101c4578063db57831c14610222575b600080fd5b34801561007357600080fd5b5061009260048036038101908080359060200190929190505050610283565b60405180878152602001806020018615151515815260200185815260200180602001848152602001838103835288818151815260200191508051906020019080838360005b838110156100f25780820151818401526020810190506100d7565b50505050905090810190601f16801561011f5780820380516001836020036101000a031916815260200191505b50838103825285818151815260200191508051906020019080838360005b8381101561015857808201518184015260208101905061013d565b50505050905090810190601f1680156101855780820380516001836020036101000a031916815260200191505b509850505050505050505060405180910390f35b3480156101a557600080fd5b506101ae6103fc565b6040518082815260200191505060405180910390f35b3480156101d057600080fd5b50610205600480360381019080803573ffffffffffffffffffffffffffffffffffffffff169060200190929190505050610402565b604051808381526020018281526020019250505060405180910390f35b34801561022e57600080fd5b5061028160048036038101908080359060200190929190803573ffffffffffffffffffffffffffffffffffffffff1690602001909291908035906020019092919080359060200190929190505050610426565b005b6000602052806000526040600020600091509050806000015490806001018054600181600116156101000203166002900480601f0160208091040260200160405190810160405280929190818152602001828054600181600116156101000203166002900480156103355780601f1061030a57610100808354040283529160200191610335565b820191906000526020600020905b81548152906001019060200180831161031857829003601f168201915b5050505050908060020160009054906101000a900460ff1690806003015490806004018054600181600116156101000203166002900480601f0160208091040260200160405190810160405280929190818152602001828054600181600116156101000203166002900480156103ec5780601f106103c1576101008083540402835291602001916103ec565b820191906000526020600020905b8154815290600101906020018083116103cf57829003601f168201915b5050505050908060050154905086565b60025481565b60016020528060005260406000206000915090508060000154908060010154905082565b600160008086815260200190815260200160002060020160006101000a81548160ff02191690831515021790555081600160003373ffffffffffffffffffffffffffffffffffffffff1673ffffffffffffffffffffffffffffffffffffffff1681526020019081526020016000206000016000828254019250508190555080600160003373ffffffffffffffffffffffffffffffffffffffff1673ffffffffffffffffffffffffffffffffffffffff16815260200190815260200160002060010160008282540392505081905550838373ffffffffffffffffffffffffffffffffffffffff163373ffffffffffffffffffffffffffffffffffffffff167fa1c80d7f130017dfde7437f1efdf5c1233aad5b81afbee75f2f5876f34be5424846040518082815260200191505060405180910390a4505050505600a165627a7a72305820afd09101d4fa5580c5babea25364a3aef7af00620e9ccd473ce4882c366ba5b20029",
  "source": "pragma solidity ^0.4.24;\n\ncontract Insurance {\n    struct FlightInsurance {\n        int id;\n        string name;\n        bool active;\n        int points;\n        string cost;\n        int amount;\n    }\n\n    struct Profile {\n        int points;\n        int balance;\n    }\n\n    mapping(int => FlightInsurance) public types;\n    mapping(address => Profile) public profile;\n\n    int public insuranceTypesCount;\n\n    event Transfer(\n        address indexed _from, \n        address indexed _to, \n        int _value,\n        int indexed _insuranceId\n    );\n\n    constructor() public {\n        addInsurance(\"One-Way\", 10, \"SGD$20 or LP100\", 20);\n        addInsurance(\"Round-Trip\", 30, \"SGD$30 or LP150\", 30);\n    }\n\n    function addInsurance (string name, int points, string cost, int amount) private {\n        insuranceTypesCount ++;\n        types[insuranceTypesCount] = FlightInsurance(insuranceTypesCount, name, false, points, cost, amount);\n    }\n\n    function buy (int _insuranceId, address receiver, int points, int amount) public{\n\n        types[_insuranceId].active = true;\n\n        // if (profile[msg.sender].balance < amount) return false;\n        profile[msg.sender].points += points;\n        profile[msg.sender].balance -= amount;\n        // profile[receiver] += amount;\n\n        emit Transfer(msg.sender, receiver, amount, _insuranceId);\n    }\n}",
  "sourcePath": "/Users/kaha/repos/DApp_Project/insurance/contracts/Insurance.sol",
  "compiler": {
    "name": "solc",
    "version": "0.4.24+commit.e67f0147.Emscripten.clang"
  },
  "schemaVersion": "2.0.1",
  "updatedAt": "2018-12-06T03:53:42.153Z"
}