{
  "contractName": "Insurance",
  "abi": [
    {
      "constant": true,
      "inputs": [],
      "name": "insuranceTypesCount",
      "outputs": [
        {
          "name": "",
          "type": "uint256"
        }
      ],
      "payable": false,
      "stateMutability": "view",
      "type": "function"
    },
    {
      "constant": true,
      "inputs": [
        {
          "name": "",
          "type": "address"
        }
      ],
      "name": "profile",
      "outputs": [
        {
          "name": "points",
          "type": "uint256"
        },
        {
          "name": "balance",
          "type": "uint256"
        }
      ],
      "payable": false,
      "stateMutability": "view",
      "type": "function"
    },
    {
      "constant": true,
      "inputs": [
        {
          "name": "",
          "type": "uint256"
        }
      ],
      "name": "types",
      "outputs": [
        {
          "name": "id",
          "type": "uint256"
        },
        {
          "name": "name",
          "type": "string"
        },
        {
          "name": "active",
          "type": "bool"
        },
        {
          "name": "points",
          "type": "uint256"
        },
        {
          "name": "cost",
          "type": "string"
        },
        {
          "name": "amount",
          "type": "uint256"
        }
      ],
      "payable": false,
      "stateMutability": "view",
      "type": "function"
    },
    {
      "inputs": [],
      "payable": false,
      "stateMutability": "nonpayable",
      "type": "constructor"
    },
    {
      "anonymous": false,
      "inputs": [
        {
          "indexed": true,
          "name": "_from",
          "type": "address"
        },
        {
          "indexed": true,
          "name": "_to",
          "type": "address"
        },
        {
          "indexed": false,
          "name": "_value",
          "type": "uint256"
        },
        {
          "indexed": true,
          "name": "_insuranceId",
          "type": "uint256"
        }
      ],
      "name": "Transfer",
      "type": "event"
    },
    {
      "constant": false,
      "inputs": [
        {
          "name": "_insuranceId",
          "type": "uint256"
        },
        {
          "name": "receiver",
          "type": "address"
        },
        {
          "name": "amount",
          "type": "uint256"
        },
        {
          "name": "points",
          "type": "uint256"
        }
      ],
      "name": "buy",
      "outputs": [
        {
          "name": "sufficient",
          "type": "bool"
        }
      ],
      "payable": false,
      "stateMutability": "nonpayable",
      "type": "function"
    }
  ],
  "bytecode": "0x608060405234801561001057600080fd5b506100986040805190810160405280600781526020017f4f6e652d57617900000000000000000000000000000000000000000000000000815250600a6040805190810160405280600f81526020017f534744243230206f72204c5031303000000000000000000000000000000000008152506014610124640100000000026401000000009004565b61011f6040805190810160405280600a81526020017f526f756e642d5472697000000000000000000000000000000000000000000000815250601e6040805190810160405280600f81526020017f534744243330206f72204c503135300000000000000000000000000000000000815250601e610124640100000000026401000000009004565b6102a3565b60026000815480929190600101919050555060c06040519081016040528060025481526020018581526020016000151581526020018481526020018381526020018281525060008060025481526020019081526020016000206000820151816000015560208201518160010190805190602001906101a39291906101fe565b5060408201518160020160006101000a81548160ff0219169083151502179055506060820151816003015560808201518160040190805190602001906101ea9291906101fe565b5060a0820151816005015590505050505050565b828054600181600116156101000203166002900490600052602060002090601f016020900481019282601f1061023f57805160ff191683800117855561026d565b8280016001018555821561026d579182015b8281111561026c578251825591602001919060010190610251565b5b50905061027a919061027e565b5090565b6102a091905b8082111561029c576000816000905550600101610284565b5090565b90565b6105ac806102b26000396000f300608060405260043610610062576000357c0100000000000000000000000000000000000000000000000000000000900463ffffffff168063706910ff146100675780637c97822b146100e05780639dd9d0fd1461010b578063cefbfa3614610169575b600080fd5b34801561007357600080fd5b506100c660048036038101908080359060200190929190803573ffffffffffffffffffffffffffffffffffffffff169060200190929190803590602001909291908035906020019092919050505061029b565b604051808215151515815260200191505060405180910390f35b3480156100ec57600080fd5b506100f56103dd565b6040518082815260200191505060405180910390f35b34801561011757600080fd5b5061014c600480360381019080803573ffffffffffffffffffffffffffffffffffffffff1690602001909291905050506103e3565b604051808381526020018281526020019250505060405180910390f35b34801561017557600080fd5b5061019460048036038101908080359060200190929190505050610407565b60405180878152602001806020018615151515815260200185815260200180602001848152602001838103835288818151815260200191508051906020019080838360005b838110156101f45780820151818401526020810190506101d9565b50505050905090810190601f1680156102215780820380516001836020036101000a031916815260200191505b50838103825285818151815260200191508051906020019080838360005b8381101561025a57808201518184015260208101905061023f565b50505050905090810190601f1680156102875780820380516001836020036101000a031916815260200191505b509850505050505050505060405180910390f35b6000600160008087815260200190815260200160002060020160006101000a81548160ff02191690831515021790555082600160003373ffffffffffffffffffffffffffffffffffffffff1673ffffffffffffffffffffffffffffffffffffffff1681526020019081526020016000206001016000828254039250508190555081600160003373ffffffffffffffffffffffffffffffffffffffff1673ffffffffffffffffffffffffffffffffffffffff16815260200190815260200160002060000160008282540192505081905550848473ffffffffffffffffffffffffffffffffffffffff163373ffffffffffffffffffffffffffffffffffffffff167f9ed053bb818ff08b8353cd46f78db1f0799f31c9e4458fdb425c10eccd2efc44866040518082815260200191505060405180910390a460019050949350505050565b60025481565b60016020528060005260406000206000915090508060000154908060010154905082565b6000602052806000526040600020600091509050806000015490806001018054600181600116156101000203166002900480601f0160208091040260200160405190810160405280929190818152602001828054600181600116156101000203166002900480156104b95780601f1061048e576101008083540402835291602001916104b9565b820191906000526020600020905b81548152906001019060200180831161049c57829003601f168201915b5050505050908060020160009054906101000a900460ff1690806003015490806004018054600181600116156101000203166002900480601f0160208091040260200160405190810160405280929190818152602001828054600181600116156101000203166002900480156105705780601f1061054557610100808354040283529160200191610570565b820191906000526020600020905b81548152906001019060200180831161055357829003601f168201915b50505050509080600501549050865600a165627a7a723058206560ec97e5fe30932d80a86920ae4e3102e991e3b172d2f9b28700e5f85774f20029",
  "source": "pragma solidity ^0.4.24;\n\ncontract Insurance {\n    struct FlightInsurance {\n        uint id;\n        string name;\n        bool active;\n        uint points;\n        string cost;\n        uint amount;\n    }\n\n    struct Profile {\n        uint points;\n        uint balance;\n    }\n\n    mapping(uint => FlightInsurance) public types;\n    mapping(address => Profile) public profile;\n\n    uint public insuranceTypesCount;\n\n    event Transfer(\n        address indexed _from, \n        address indexed _to, \n        uint256 _value,\n        uint indexed _insuranceId\n    );\n\n    constructor() public {\n        addInsurance(\"One-Way\", 10, \"SGD$20 or LP100\", 20);\n        addInsurance(\"Round-Trip\", 30, \"SGD$30 or LP150\", 30);\n    }\n\n    function addInsurance (string _name, uint _points, string _cost, uint _amount) private {\n        insuranceTypesCount ++;\n        types[insuranceTypesCount] = FlightInsurance(insuranceTypesCount, _name, false, _points, _cost, _amount);\n    }\n\n    function buy (uint _insuranceId, address receiver, uint amount, uint points) public returns(bool sufficient) {\n\n        types[_insuranceId].active = true;\n\n\n        // if (profile[msg.sender].balance < amount) return false;\n        profile[msg.sender].balance -= amount;\n        profile[msg.sender].points += points;\n\n        emit Transfer(msg.sender, receiver, amount, _insuranceId);\n        return true;\n    }\n\n    // function setProfileValues (uint points, uint balance) public returns(bool success){\n    //     profile[msg.sender].points = points;\n    //     profile[msg.sender].balance = balance;\n    //     return true;\n    // }\n}",
  "sourcePath": "/Users/kaha/repos/DApp_Project/insurance/contracts/Insurance.sol",
  "compiler": {
    "name": "solc",
    "version": "0.4.24+commit.e67f0147.Emscripten.clang"
  },
  "schemaVersion": "2.0.1",
  "updatedAt": "2018-12-06T03:26:06.200Z"
}