{
  "contractName": "Insurance",
  "abi": [
    {
      "constant": true,
      "inputs": [
        {
          "name": "",
          "type": "int256"
        }
      ],
      "name": "types",
      "outputs": [
        {
          "name": "insuranceId",
          "type": "int256"
        },
        {
          "name": "name",
          "type": "string"
        },
        {
          "name": "awardLP",
          "type": "int256"
        },
        {
          "name": "costSGD",
          "type": "int256"
        },
        {
          "name": "costLP",
          "type": "int256"
        },
        {
          "name": "info",
          "type": "string"
        },
        {
          "name": "active",
          "type": "bool"
        }
      ],
      "payable": false,
      "stateMutability": "view",
      "type": "function"
    },
    {
      "constant": true,
      "inputs": [],
      "name": "insuranceTypesCount",
      "outputs": [
        {
          "name": "",
          "type": "int256"
        }
      ],
      "payable": false,
      "stateMutability": "view",
      "type": "function"
    },
    {
      "constant": true,
      "inputs": [
        {
          "name": "",
          "type": "address"
        }
      ],
      "name": "profile",
      "outputs": [
        {
          "name": "points",
          "type": "int256"
        },
        {
          "name": "balance",
          "type": "int256"
        },
        {
          "name": "activeInsurance",
          "type": "bool"
        }
      ],
      "payable": false,
      "stateMutability": "view",
      "type": "function"
    },
    {
      "inputs": [],
      "payable": false,
      "stateMutability": "nonpayable",
      "type": "constructor"
    },
    {
      "anonymous": false,
      "inputs": [
        {
          "indexed": true,
          "name": "_from",
          "type": "address"
        },
        {
          "indexed": true,
          "name": "_to",
          "type": "address"
        },
        {
          "indexed": false,
          "name": "_value",
          "type": "int256"
        },
        {
          "indexed": true,
          "name": "insuranceinsuranceId",
          "type": "int256"
        }
      ],
      "name": "TransferSGD",
      "type": "event"
    },
    {
      "anonymous": false,
      "inputs": [
        {
          "indexed": true,
          "name": "_from",
          "type": "address"
        },
        {
          "indexed": true,
          "name": "insuranceinsuranceId",
          "type": "int256"
        }
      ],
      "name": "TransferLP",
      "type": "event"
    },
    {
      "constant": false,
      "inputs": [
        {
          "name": "insuranceId",
          "type": "int256"
        },
        {
          "name": "receiver",
          "type": "address"
        },
        {
          "name": "awardLP",
          "type": "int256"
        },
        {
          "name": "costSGD",
          "type": "int256"
        }
      ],
      "name": "buyWithSGD",
      "outputs": [
        {
          "name": "sufficient",
          "type": "bool"
        }
      ],
      "payable": false,
      "stateMutability": "nonpayable",
      "type": "function"
    },
    {
      "constant": false,
      "inputs": [
        {
          "name": "insuranceId",
          "type": "int256"
        },
        {
          "name": "costLP",
          "type": "int256"
        }
      ],
      "name": "buyWithLP",
      "outputs": [
        {
          "name": "sufficient",
          "type": "bool"
        }
      ],
      "payable": false,
      "stateMutability": "nonpayable",
      "type": "function"
    },
    {
      "constant": false,
      "inputs": [
        {
          "name": "receiver",
          "type": "address"
        },
        {
          "name": "activeInsurance",
          "type": "bool"
        },
        {
          "name": "delayed",
          "type": "bool"
        },
        {
          "name": "canceled",
          "type": "bool"
        }
      ],
      "name": "claim",
      "outputs": [
        {
          "name": "sufficient",
          "type": "bool"
        }
      ],
      "payable": false,
      "stateMutability": "nonpayable",
      "type": "function"
    }
  ],
  "bytecode": "0x608060405234801561001057600080fd5b5061009a6040805190810160405280600781526020017f4f6e652d57617900000000000000000000000000000000000000000000000000815250600a601460646040805190810160405280600f81526020017f534744243230206f72204c503130300000000000000000000000000000000000815250610127640100000000026401000000009004565b6101226040805190810160405280600a81526020017f526f756e642d5472697000000000000000000000000000000000000000000000815250601e8060966040805190810160405280600f81526020017f534744243330206f72204c503135300000000000000000000000000000000000815250610127640100000000026401000000009004565b6102b7565b60026000815480929190600101919050555060e06040519081016040528060025481526020018681526020018581526020018481526020018381526020018281526020016000151581525060008060025481526020019081526020016000206000820151816000015560208201518160010190805190602001906101ac929190610212565b5060408201518160020155606082015181600301556080820151816004015560a08201518160050190805190602001906101e7929190610212565b5060c08201518160060160006101000a81548160ff0219169083151502179055509050505050505050565b828054600181600116156101000203166002900490600052602060002090601f016020900481019282601f1061025357805160ff1916838001178555610281565b82800160010185558215610281579182015b82811115610280578251825591602001919060010190610265565b5b50905061028e9190610292565b5090565b6102b491905b808211156102b0576000816000905550600101610298565b5090565b90565b610aa9806102c66000396000f300608060405260043610610078576000357c0100000000000000000000000000000000000000000000000000000000900463ffffffff16806365d315181461007d57806378db2b7d146100fc5780637c97822b146102355780638f23ebe5146102605780639dd9d0fd146102d9578063b3540fca14610342575b600080fd5b34801561008957600080fd5b506100e2600480360381019080803573ffffffffffffffffffffffffffffffffffffffff169060200190929190803515159060200190929190803515159060200190929190803515159060200190929190505050610391565b604051808215151515815260200191505060405180910390f35b34801561010857600080fd5b50610127600480360381019080803590602001909291905050506105b3565b60405180888152602001806020018781526020018681526020018581526020018060200184151515158152602001838103835289818151815260200191508051906020019080838360005b8381101561018d578082015181840152602081019050610172565b50505050905090810190601f1680156101ba5780820380516001836020036101000a031916815260200191505b50838103825285818151815260200191508051906020019080838360005b838110156101f35780820151818401526020810190506101d8565b50505050905090810190601f1680156102205780820380516001836020036101000a031916815260200191505b50995050505050505050505060405180910390f35b34801561024157600080fd5b5061024a610732565b6040518082815260200191505060405180910390f35b34801561026c57600080fd5b506102bf60048036038101908080359060200190929190803573ffffffffffffffffffffffffffffffffffffffff1690602001909291908035906020019092919080359060200190929190505050610738565b604051808215151515815260200191505060405180910390f35b3480156102e557600080fd5b5061031a600480360381019080803573ffffffffffffffffffffffffffffffffffffffff169060200190929190505050610924565b6040518084815260200183815260200182151515158152602001935050505060405180910390f35b34801561034e57600080fd5b50610377600480360381019080803590602001909291908035906020019092919050505061095b565b604051808215151515815260200191505060405180910390f35b6000600160003373ffffffffffffffffffffffffffffffffffffffff1673ffffffffffffffffffffffffffffffffffffffff16815260200190815260200160002060020160009054906101000a900460ff1615156103f257600090506105ab565b821561049f5760c8600160003373ffffffffffffffffffffffffffffffffffffffff1673ffffffffffffffffffffffffffffffffffffffff1681526020019081526020016000206001016000828254019250508190555060c8600160008773ffffffffffffffffffffffffffffffffffffffff1673ffffffffffffffffffffffffffffffffffffffff1681526020019081526020016000206001016000828254039250508190555061054b565b811561054a57611388600160003373ffffffffffffffffffffffffffffffffffffffff1673ffffffffffffffffffffffffffffffffffffffff16815260200190815260200160002060010160008282540192505081905550611388600160008773ffffffffffffffffffffffffffffffffffffffff1673ffffffffffffffffffffffffffffffffffffffff168152602001908152602001600020600101600082825403925050819055505b5b6000600160003373ffffffffffffffffffffffffffffffffffffffff1673ffffffffffffffffffffffffffffffffffffffff16815260200190815260200160002060020160006101000a81548160ff021916908315150217905550600190505b949350505050565b6000602052806000526040600020600091509050806000015490806001018054600181600116156101000203166002900480601f0160208091040260200160405190810160405280929190818152602001828054600181600116156101000203166002900480156106655780601f1061063a57610100808354040283529160200191610665565b820191906000526020600020905b81548152906001019060200180831161064857829003601f168201915b505050505090806002015490806003015490806004015490806005018054600181600116156101000203166002900480601f0160208091040260200160405190810160405280929190818152602001828054600181600116156101000203166002900480156107155780601f106106ea57610100808354040283529160200191610715565b820191906000526020600020905b8154815290600101906020018083116106f857829003601f168201915b5050505050908060060160009054906101000a900460ff16905087565b60025481565b6000600160008087815260200190815260200160002060060160006101000a81548160ff02191690831515021790555060018060003373ffffffffffffffffffffffffffffffffffffffff1673ffffffffffffffffffffffffffffffffffffffff16815260200190815260200160002060020160006101000a81548160ff02191690831515021790555082600160003373ffffffffffffffffffffffffffffffffffffffff1673ffffffffffffffffffffffffffffffffffffffff1681526020019081526020016000206000016000828254019250508190555081600160003373ffffffffffffffffffffffffffffffffffffffff1673ffffffffffffffffffffffffffffffffffffffff1681526020019081526020016000206001016000828254039250508190555081600160008673ffffffffffffffffffffffffffffffffffffffff1673ffffffffffffffffffffffffffffffffffffffff16815260200190815260200160002060010160008282540192505081905550848473ffffffffffffffffffffffffffffffffffffffff163373ffffffffffffffffffffffffffffffffffffffff167faddf7398bc9d19e70ce04d77444c269b3ed79f4a0990104f01c17758b7c81e22856040518082815260200191505060405180910390a460019050949350505050565b60016020528060005260406000206000915090508060000154908060010154908060020160009054906101000a900460ff16905083565b600081600160003373ffffffffffffffffffffffffffffffffffffffff1673ffffffffffffffffffffffffffffffffffffffff1681526020019081526020016000206000015412156109b05760009050610a77565b600160008085815260200190815260200160002060060160006101000a81548160ff02191690831515021790555081600160003373ffffffffffffffffffffffffffffffffffffffff1673ffffffffffffffffffffffffffffffffffffffff16815260200190815260200160002060000160008282540392505081905550823373ffffffffffffffffffffffffffffffffffffffff167fbcf185128fcb361ee313a84dc1251d03721e8db930a9f0d740620bc02f728cc060405160405180910390a3600190505b929150505600a165627a7a723058208f80c76078e47b3b73663e8e2bd3daede211c489e0470dad7b9ab330a169833c0029",
  "source": "pragma solidity ^0.4.24;\n\ncontract Insurance {\n    struct FlightInsurance {\n        int insuranceId;\n        string name;\n        int awardLP;\n        int costSGD;\n        int costLP;\n        string info;\n        bool active;\n    }\n\n    struct Profile {\n        int points;\n        int balance;\n        bool activeInsurance;\n    }\n\n    mapping(int => FlightInsurance) public types;\n    mapping(address => Profile) public profile;\n\n    int public insuranceTypesCount;\n\n    event TransferSGD(\n        address indexed _from, \n        address indexed _to, \n        int _value,\n        int indexed insuranceinsuranceId\n    );\n\n    event TransferLP(\n        address indexed _from, \n        int indexed insuranceinsuranceId\n    );\n\n    constructor() public {\n        addInsurance(\"One-Way\", 10, 20, 100, \"SGD$20 or LP100\");\n        addInsurance(\"Round-Trip\", 30, 30, 150, \"SGD$30 or LP150\");\n    }\n\n    function addInsurance (string name, int awardLP, int costSGD, int costLP, string info) private {\n        insuranceTypesCount ++;\n        types[insuranceTypesCount] = FlightInsurance(insuranceTypesCount, name, awardLP, costSGD, costLP, info, false);\n    }\n\n    function buyWithSGD (int insuranceId, address receiver, int awardLP, int costSGD) public returns(bool sufficient){\n        // if (profile[msg.sender].balance < costSGD) return false;\n        types[insuranceId].active = true;\n        profile[msg.sender].activeInsurance = true;\n        profile[msg.sender].points += awardLP;\n        profile[msg.sender].balance -= costSGD;\n        profile[receiver].balance += costSGD;\n\n        emit TransferSGD(msg.sender, receiver, costSGD, insuranceId);\n        return true;\n    }\n\n    function buyWithLP (int insuranceId, int costLP) public returns(bool sufficient){\n        if (profile[msg.sender].points < costLP) return false;\n\n        types[insuranceId].active = true;\n        profile[msg.sender].points -= costLP;\n\n        emit TransferLP(msg.sender, insuranceId);\n        return true;\n    }\n\n    function claim (address receiver, bool activeInsurance, bool delayed, bool canceled) public returns(bool sufficient){\n        if (!profile[msg.sender].activeInsurance) return false;\n        \n        if (delayed) {\n            profile[msg.sender].balance += 200;\n            profile[receiver].balance -= 200;\n        } else if (canceled) { \n            profile[msg.sender].balance += 5000;\n            profile[receiver].balance -= 5000;\n        }\n\n        profile[msg.sender].activeInsurance = false;\n        // emit TransferLP(msg.sender, insuranceId);\n        return true;\n    }\n}",
  "sourcePath": "/Users/kaha/repos/DApp_Project/insurance/contracts/Insurance.sol",
  "compiler": {
    "name": "solc",
    "version": "0.4.24+commit.e67f0147.Emscripten.clang"
  },
  "schemaVersion": "2.0.1",
  "updatedAt": "2018-12-06T05:24:10.274Z"
}