{
  "contractName": "Insurance",
  "abi": [
    {
      "constant": true,
      "inputs": [
        {
          "name": "",
          "type": "int256"
        }
      ],
      "name": "types",
      "outputs": [
        {
          "name": "insuranceId",
          "type": "int256"
        },
        {
          "name": "name",
          "type": "string"
        },
        {
          "name": "awardLP",
          "type": "int256"
        },
        {
          "name": "costSGD",
          "type": "int256"
        },
        {
          "name": "costLP",
          "type": "int256"
        },
        {
          "name": "info",
          "type": "string"
        },
        {
          "name": "active",
          "type": "bool"
        }
      ],
      "payable": false,
      "stateMutability": "view",
      "type": "function"
    },
    {
      "constant": true,
      "inputs": [],
      "name": "insuranceTypesCount",
      "outputs": [
        {
          "name": "",
          "type": "int256"
        }
      ],
      "payable": false,
      "stateMutability": "view",
      "type": "function"
    },
    {
      "constant": true,
      "inputs": [
        {
          "name": "",
          "type": "address"
        }
      ],
      "name": "profile",
      "outputs": [
        {
          "name": "points",
          "type": "int256"
        },
        {
          "name": "balance",
          "type": "int256"
        },
        {
          "name": "activeInsurance",
          "type": "bool"
        },
        {
          "name": "flightId",
          "type": "string"
        }
      ],
      "payable": false,
      "stateMutability": "view",
      "type": "function"
    },
    {
      "inputs": [],
      "payable": false,
      "stateMutability": "nonpayable",
      "type": "constructor"
    },
    {
      "anonymous": false,
      "inputs": [
        {
          "indexed": true,
          "name": "_from",
          "type": "address"
        },
        {
          "indexed": true,
          "name": "_to",
          "type": "address"
        },
        {
          "indexed": false,
          "name": "_value",
          "type": "int256"
        },
        {
          "indexed": true,
          "name": "insuranceinsuranceId",
          "type": "int256"
        }
      ],
      "name": "TransferSGD",
      "type": "event"
    },
    {
      "anonymous": false,
      "inputs": [
        {
          "indexed": true,
          "name": "_from",
          "type": "address"
        },
        {
          "indexed": true,
          "name": "insuranceinsuranceId",
          "type": "int256"
        }
      ],
      "name": "TransferLP",
      "type": "event"
    },
    {
      "constant": false,
      "inputs": [
        {
          "name": "insuranceId",
          "type": "int256"
        },
        {
          "name": "receiver",
          "type": "address"
        },
        {
          "name": "awardLP",
          "type": "int256"
        },
        {
          "name": "costSGD",
          "type": "int256"
        },
        {
          "name": "flightId",
          "type": "string"
        }
      ],
      "name": "buyWithSGD",
      "outputs": [
        {
          "name": "sufficient",
          "type": "bool"
        }
      ],
      "payable": false,
      "stateMutability": "nonpayable",
      "type": "function"
    },
    {
      "constant": false,
      "inputs": [
        {
          "name": "insuranceId",
          "type": "int256"
        },
        {
          "name": "costLP",
          "type": "int256"
        },
        {
          "name": "flightId",
          "type": "string"
        }
      ],
      "name": "buyWithLP",
      "outputs": [
        {
          "name": "sufficient",
          "type": "bool"
        }
      ],
      "payable": false,
      "stateMutability": "nonpayable",
      "type": "function"
    },
    {
      "constant": false,
      "inputs": [
        {
          "name": "insuranceId",
          "type": "int256"
        },
        {
          "name": "receiver",
          "type": "address"
        },
        {
          "name": "activeInsurance",
          "type": "bool"
        },
        {
          "name": "delayed",
          "type": "bool"
        },
        {
          "name": "canceled",
          "type": "bool"
        },
        {
          "name": "flightId",
          "type": "string"
        }
      ],
      "name": "claim",
      "outputs": [
        {
          "name": "sufficient",
          "type": "bool"
        }
      ],
      "payable": false,
      "stateMutability": "nonpayable",
      "type": "function"
    }
  ],
  "bytecode": "0x60806040523480156200001157600080fd5b506200009d6040805190810160405280600781526020017f4f6e652d57617900000000000000000000000000000000000000000000000000815250600a601460646040805190810160405280600f81526020017f534744243230206f72204c5031303000000000000000000000000000000000008152506200012d640100000000026401000000009004565b620001276040805190810160405280600a81526020017f526f756e642d5472697000000000000000000000000000000000000000000000815250601e8060966040805190810160405280600f81526020017f534744243330206f72204c5031353000000000000000000000000000000000008152506200012d640100000000026401000000009004565b620002cb565b60026000815480929190600101919050555060e0604051908101604052806002548152602001868152602001858152602001848152602001838152602001828152602001600015158152506000806002548152602001908152602001600020600082015181600001556020820151816001019080519060200190620001b49291906200021c565b5060408201518160020155606082015181600301556080820151816004015560a0820151816005019080519060200190620001f19291906200021c565b5060c08201518160060160006101000a81548160ff0219169083151502179055509050505050505050565b828054600181600116156101000203166002900490600052602060002090601f016020900481019282601f106200025f57805160ff191683800117855562000290565b8280016001018555821562000290579182015b828111156200028f57825182559160200191906001019062000272565b5b5090506200029f9190620002a3565b5090565b620002c891905b80821115620002c4576000816000905550600101620002aa565b5090565b90565b610ed580620002db6000396000f300608060405260043610610078576000357c0100000000000000000000000000000000000000000000000000000000900463ffffffff1680634f0e2b081461007d57806378db2b7d1461014c5780637c97822b146102855780639dd9d0fd146102b0578063afad894914610385578063ce103cda1461041a575b600080fd5b34801561008957600080fd5b5061013260048036038101908080359060200190929190803573ffffffffffffffffffffffffffffffffffffffff169060200190929190803515159060200190929190803515159060200190929190803515159060200190929190803590602001908201803590602001908080601f01602080910402602001604051908101604052809392919081815260200183838082843782019150505050505091929192905050506104d9565b604051808215151515815260200191505060405180910390f35b34801561015857600080fd5b5061017760048036038101908080359060200190929190505050610792565b60405180888152602001806020018781526020018681526020018581526020018060200184151515158152602001838103835289818151815260200191508051906020019080838360005b838110156101dd5780820151818401526020810190506101c2565b50505050905090810190601f16801561020a5780820380516001836020036101000a031916815260200191505b50838103825285818151815260200191508051906020019080838360005b83811015610243578082015181840152602081019050610228565b50505050905090810190601f1680156102705780820380516001836020036101000a031916815260200191505b50995050505050505050505060405180910390f35b34801561029157600080fd5b5061029a610911565b6040518082815260200191505060405180910390f35b3480156102bc57600080fd5b506102f1600480360381019080803573ffffffffffffffffffffffffffffffffffffffff169060200190929190505050610917565b604051808581526020018481526020018315151515815260200180602001828103825283818151815260200191508051906020019080838360005b8381101561034757808201518184015260208101905061032c565b50505050905090810190601f1680156103745780820380516001836020036101000a031916815260200191505b509550505050505060405180910390f35b34801561039157600080fd5b506104006004803603810190808035906020019092919080359060200190929190803590602001908201803590602001908080601f01602080910402602001604051908101604052809392919081815260200183838082843782019150505050505091929192905050506109ec565b604051808215151515815260200191505060405180910390f35b34801561042657600080fd5b506104bf60048036038101908080359060200190929190803573ffffffffffffffffffffffffffffffffffffffff1690602001909291908035906020019092919080359060200190929190803590602001908201803590602001908080601f0160208091040260200160405190810160405280939291908181526020018383808284378201915050505050509192919290505050610bc0565b604051808215151515815260200191505060405180910390f35b6000600160003373ffffffffffffffffffffffffffffffffffffffff1673ffffffffffffffffffffffffffffffffffffffff16815260200190815260200160002060020160009054906101000a900460ff16151561053a5760009050610788565b83156105e75760c8600160003373ffffffffffffffffffffffffffffffffffffffff1673ffffffffffffffffffffffffffffffffffffffff1681526020019081526020016000206001016000828254019250508190555060c8600160008873ffffffffffffffffffffffffffffffffffffffff1673ffffffffffffffffffffffffffffffffffffffff16815260200190815260200160002060010160008282540392505081905550610693565b821561069257611388600160003373ffffffffffffffffffffffffffffffffffffffff1673ffffffffffffffffffffffffffffffffffffffff16815260200190815260200160002060010160008282540192505081905550611388600160008873ffffffffffffffffffffffffffffffffffffffff1673ffffffffffffffffffffffffffffffffffffffff168152602001908152602001600020600101600082825403925050819055505b5b600080600089815260200190815260200160002060060160006101000a81548160ff0219169083151502179055506000600160003373ffffffffffffffffffffffffffffffffffffffff1673ffffffffffffffffffffffffffffffffffffffff16815260200190815260200160002060020160006101000a81548160ff0219169083151502179055506020604051908101604052806000815250600160003373ffffffffffffffffffffffffffffffffffffffff1673ffffffffffffffffffffffffffffffffffffffff1681526020019081526020016000206003019080519060200190610782929190610e04565b50600190505b9695505050505050565b6000602052806000526040600020600091509050806000015490806001018054600181600116156101000203166002900480601f0160208091040260200160405190810160405280929190818152602001828054600181600116156101000203166002900480156108445780601f1061081957610100808354040283529160200191610844565b820191906000526020600020905b81548152906001019060200180831161082757829003601f168201915b505050505090806002015490806003015490806004015490806005018054600181600116156101000203166002900480601f0160208091040260200160405190810160405280929190818152602001828054600181600116156101000203166002900480156108f45780601f106108c9576101008083540402835291602001916108f4565b820191906000526020600020905b8154815290600101906020018083116108d757829003601f168201915b5050505050908060060160009054906101000a900460ff16905087565b60025481565b60016020528060005260406000206000915090508060000154908060010154908060020160009054906101000a900460ff1690806003018054600181600116156101000203166002900480601f0160208091040260200160405190810160405280929190818152602001828054600181600116156101000203166002900480156109e25780601f106109b7576101008083540402835291602001916109e2565b820191906000526020600020905b8154815290600101906020018083116109c557829003601f168201915b5050505050905084565b600082600160003373ffffffffffffffffffffffffffffffffffffffff1673ffffffffffffffffffffffffffffffffffffffff168152602001908152602001600020600001541215610a415760009050610bb9565b600160008086815260200190815260200160002060060160006101000a81548160ff02191690831515021790555060018060003373ffffffffffffffffffffffffffffffffffffffff1673ffffffffffffffffffffffffffffffffffffffff16815260200190815260200160002060020160006101000a81548160ff02191690831515021790555082600160003373ffffffffffffffffffffffffffffffffffffffff1673ffffffffffffffffffffffffffffffffffffffff1681526020019081526020016000206000016000828254039250508190555081600160003373ffffffffffffffffffffffffffffffffffffffff1673ffffffffffffffffffffffffffffffffffffffff1681526020019081526020016000206003019080519060200190610b6f929190610e04565b50833373ffffffffffffffffffffffffffffffffffffffff167fbcf185128fcb361ee313a84dc1251d03721e8db930a9f0d740620bc02f728cc060405160405180910390a3600190505b9392505050565b6000600160008088815260200190815260200160002060060160006101000a81548160ff02191690831515021790555060018060003373ffffffffffffffffffffffffffffffffffffffff1673ffffffffffffffffffffffffffffffffffffffff16815260200190815260200160002060020160006101000a81548160ff02191690831515021790555083600160003373ffffffffffffffffffffffffffffffffffffffff1673ffffffffffffffffffffffffffffffffffffffff1681526020019081526020016000206000016000828254019250508190555082600160003373ffffffffffffffffffffffffffffffffffffffff1673ffffffffffffffffffffffffffffffffffffffff1681526020019081526020016000206001016000828254039250508190555081600160003373ffffffffffffffffffffffffffffffffffffffff1673ffffffffffffffffffffffffffffffffffffffff1681526020019081526020016000206003019080519060200190610d40929190610e04565b5082600160008773ffffffffffffffffffffffffffffffffffffffff1673ffffffffffffffffffffffffffffffffffffffff16815260200190815260200160002060010160008282540192505081905550858573ffffffffffffffffffffffffffffffffffffffff163373ffffffffffffffffffffffffffffffffffffffff167faddf7398bc9d19e70ce04d77444c269b3ed79f4a0990104f01c17758b7c81e22866040518082815260200191505060405180910390a46001905095945050505050565b828054600181600116156101000203166002900490600052602060002090601f016020900481019282601f10610e4557805160ff1916838001178555610e73565b82800160010185558215610e73579182015b82811115610e72578251825591602001919060010190610e57565b5b509050610e809190610e84565b5090565b610ea691905b80821115610ea2576000816000905550600101610e8a565b5090565b905600a165627a7a72305820a8e4af06d7c2769a6cc06defb43e034f0ae62c93b0e24e50f50ebb0b29516cd60029",
  "source": "pragma solidity ^0.4.24;\n\ncontract Insurance {\n    struct FlightInsurance {\n        int insuranceId;\n        string name;\n        int awardLP;\n        int costSGD;\n        int costLP;\n        string info;\n        bool active;\n    }\n\n    struct Profile {\n        int points;\n        int balance;\n        bool activeInsurance;\n        string flightId;\n    }\n\n    mapping(int => FlightInsurance) public types;\n    mapping(address => Profile) public profile;\n\n    int public insuranceTypesCount;\n\n    event TransferSGD(\n        address indexed _from, \n        address indexed _to, \n        int _value,\n        int indexed insuranceinsuranceId\n    );\n\n    event TransferLP(\n        address indexed _from, \n        int indexed insuranceinsuranceId\n    );\n\n    constructor() public {\n        addInsurance(\"One-Way\", 10, 20, 100, \"SGD$20 or LP100\");\n        addInsurance(\"Round-Trip\", 30, 30, 150, \"SGD$30 or LP150\");\n    }\n\n    function addInsurance (string name, int awardLP, int costSGD, int costLP, string info) private {\n        insuranceTypesCount ++;\n        types[insuranceTypesCount] = FlightInsurance(insuranceTypesCount, name, awardLP, costSGD, costLP, info, false);\n    }\n\n    function buyWithSGD (int insuranceId, address receiver, int awardLP, int costSGD, string flightId) public returns(bool sufficient){\n        // if (profile[msg.sender].balance < costSGD) return false;\n        types[insuranceId].active = true;\n        profile[msg.sender].activeInsurance = true;\n        profile[msg.sender].points += awardLP;\n        profile[msg.sender].balance -= costSGD;\n        profile[msg.sender].flightId = flightId;\n        profile[receiver].balance += costSGD;\n\n        emit TransferSGD(msg.sender, receiver, costSGD, insuranceId);\n        return true;\n    }\n\n    function buyWithLP (int insuranceId, int costLP, string flightId) public returns(bool sufficient){\n        if (profile[msg.sender].points < costLP) return false;\n\n        types[insuranceId].active = true;\n        profile[msg.sender].activeInsurance = true;\n        profile[msg.sender].points -= costLP;\n        profile[msg.sender].flightId = flightId;\n\n        emit TransferLP(msg.sender, insuranceId);\n        return true;\n    }\n\n    function claim (int insuranceId, address receiver, bool activeInsurance, bool delayed, bool canceled, string flightId) public returns(bool sufficient){\n        if (!profile[msg.sender].activeInsurance) return false;\n        \n        if (delayed) {\n            profile[msg.sender].balance += 200;\n            profile[receiver].balance -= 200;\n        } else if (canceled) { \n            profile[msg.sender].balance += 5000;\n            profile[receiver].balance -= 5000;\n        }\n\n        types[insuranceId].active = false;\n        profile[msg.sender].activeInsurance = false;\n        profile[msg.sender].flightId = \"\";\n        // emit TransferLP(msg.sender, insuranceId);\n        return true;\n    }\n}",
  "sourcePath": "/Users/kaha/repos/DApp_Project/insurance/contracts/Insurance.sol",
  "compiler": {
    "name": "solc",
    "version": "0.4.24+commit.e67f0147.Emscripten.clang"
  },
  "schemaVersion": "2.0.1",
  "updatedAt": "2018-12-07T08:30:32.706Z"
}