{
  "contractName": "Insurance",
  "abi": [
    {
      "constant": true,
      "inputs": [
        {
          "name": "",
          "type": "int256"
        }
      ],
      "name": "types",
      "outputs": [
        {
          "name": "insuranceId",
          "type": "int256"
        },
        {
          "name": "name",
          "type": "string"
        },
        {
          "name": "awardLP",
          "type": "int256"
        },
        {
          "name": "costSGD",
          "type": "int256"
        },
        {
          "name": "costLP",
          "type": "int256"
        },
        {
          "name": "info",
          "type": "string"
        },
        {
          "name": "active",
          "type": "bool"
        }
      ],
      "payable": false,
      "stateMutability": "view",
      "type": "function"
    },
    {
      "constant": true,
      "inputs": [],
      "name": "insuranceTypesCount",
      "outputs": [
        {
          "name": "",
          "type": "int256"
        }
      ],
      "payable": false,
      "stateMutability": "view",
      "type": "function"
    },
    {
      "constant": true,
      "inputs": [
        {
          "name": "",
          "type": "address"
        }
      ],
      "name": "profile",
      "outputs": [
        {
          "name": "points",
          "type": "int256"
        },
        {
          "name": "balance",
          "type": "int256"
        }
      ],
      "payable": false,
      "stateMutability": "view",
      "type": "function"
    },
    {
      "inputs": [],
      "payable": false,
      "stateMutability": "nonpayable",
      "type": "constructor"
    },
    {
      "anonymous": false,
      "inputs": [
        {
          "indexed": true,
          "name": "_from",
          "type": "address"
        },
        {
          "indexed": true,
          "name": "_to",
          "type": "address"
        },
        {
          "indexed": false,
          "name": "_value",
          "type": "int256"
        },
        {
          "indexed": true,
          "name": "insuranceinsuranceId",
          "type": "int256"
        }
      ],
      "name": "TransferSGD",
      "type": "event"
    },
    {
      "anonymous": false,
      "inputs": [
        {
          "indexed": true,
          "name": "_from",
          "type": "address"
        },
        {
          "indexed": true,
          "name": "insuranceinsuranceId",
          "type": "int256"
        }
      ],
      "name": "TransferLP",
      "type": "event"
    },
    {
      "constant": false,
      "inputs": [
        {
          "name": "insuranceId",
          "type": "int256"
        },
        {
          "name": "receiver",
          "type": "address"
        },
        {
          "name": "awardLP",
          "type": "int256"
        },
        {
          "name": "costSGD",
          "type": "int256"
        }
      ],
      "name": "buyWithSGD",
      "outputs": [
        {
          "name": "sufficient",
          "type": "bool"
        }
      ],
      "payable": false,
      "stateMutability": "nonpayable",
      "type": "function"
    },
    {
      "constant": false,
      "inputs": [
        {
          "name": "insuranceId",
          "type": "int256"
        },
        {
          "name": "costLP",
          "type": "int256"
        }
      ],
      "name": "buyWithLP",
      "outputs": [
        {
          "name": "sufficient",
          "type": "bool"
        }
      ],
      "payable": false,
      "stateMutability": "nonpayable",
      "type": "function"
    }
  ],
  "bytecode": "0x608060405234801561001057600080fd5b5061009a6040805190810160405280600781526020017f4f6e652d57617900000000000000000000000000000000000000000000000000815250600a601460646040805190810160405280600f81526020017f534744243230206f72204c503130300000000000000000000000000000000000815250610127640100000000026401000000009004565b6101226040805190810160405280600a81526020017f526f756e642d5472697000000000000000000000000000000000000000000000815250601e8060966040805190810160405280600f81526020017f534744243330206f72204c503135300000000000000000000000000000000000815250610127640100000000026401000000009004565b6102b7565b60026000815480929190600101919050555060e06040519081016040528060025481526020018681526020018581526020018481526020018381526020018281526020016000151581525060008060025481526020019081526020016000206000820151816000015560208201518160010190805190602001906101ac929190610212565b5060408201518160020155606082015181600301556080820151816004015560a08201518160050190805190602001906101e7929190610212565b5060c08201518160060160006101000a81548160ff0219169083151502179055509050505050505050565b828054600181600116156101000203166002900490600052602060002090601f016020900481019282601f1061025357805160ff1916838001178555610281565b82800160010185558215610281579182015b82811115610280578251825591602001919060010190610265565b5b50905061028e9190610292565b5090565b6102b491905b808211156102b0576000816000905550600101610298565b5090565b90565b610735806102c66000396000f30060806040526004361061006d576000357c0100000000000000000000000000000000000000000000000000000000900463ffffffff16806378db2b7d146100725780637c97822b146101ab5780638f23ebe5146101d65780639dd9d0fd1461024f578063b3540fca146102ad575b600080fd5b34801561007e57600080fd5b5061009d600480360381019080803590602001909291905050506102fc565b60405180888152602001806020018781526020018681526020018581526020018060200184151515158152602001838103835289818151815260200191508051906020019080838360005b838110156101035780820151818401526020810190506100e8565b50505050905090810190601f1680156101305780820380516001836020036101000a031916815260200191505b50838103825285818151815260200191508051906020019080838360005b8381101561016957808201518184015260208101905061014e565b50505050905090810190601f1680156101965780820380516001836020036101000a031916815260200191505b50995050505050505050505060405180910390f35b3480156101b757600080fd5b506101c061047b565b6040518082815260200191505060405180910390f35b3480156101e257600080fd5b5061023560048036038101908080359060200190929190803573ffffffffffffffffffffffffffffffffffffffff1690602001909291908035906020019092919080359060200190929190505050610481565b604051808215151515815260200191505060405180910390f35b34801561025b57600080fd5b50610290600480360381019080803573ffffffffffffffffffffffffffffffffffffffff1690602001909291905050506105c3565b604051808381526020018281526020019250505060405180910390f35b3480156102b957600080fd5b506102e260048036038101908080359060200190929190803590602001909291905050506105e7565b604051808215151515815260200191505060405180910390f35b6000602052806000526040600020600091509050806000015490806001018054600181600116156101000203166002900480601f0160208091040260200160405190810160405280929190818152602001828054600181600116156101000203166002900480156103ae5780601f10610383576101008083540402835291602001916103ae565b820191906000526020600020905b81548152906001019060200180831161039157829003601f168201915b505050505090806002015490806003015490806004015490806005018054600181600116156101000203166002900480601f01602080910402602001604051908101604052809291908181526020018280546001816001161561010002031660029004801561045e5780601f106104335761010080835404028352916020019161045e565b820191906000526020600020905b81548152906001019060200180831161044157829003601f168201915b5050505050908060060160009054906101000a900460ff16905087565b60025481565b6000600160008087815260200190815260200160002060060160006101000a81548160ff02191690831515021790555082600160003373ffffffffffffffffffffffffffffffffffffffff1673ffffffffffffffffffffffffffffffffffffffff1681526020019081526020016000206000016000828254019250508190555081600160003373ffffffffffffffffffffffffffffffffffffffff1673ffffffffffffffffffffffffffffffffffffffff16815260200190815260200160002060010160008282540392505081905550848473ffffffffffffffffffffffffffffffffffffffff163373ffffffffffffffffffffffffffffffffffffffff167faddf7398bc9d19e70ce04d77444c269b3ed79f4a0990104f01c17758b7c81e22856040518082815260200191505060405180910390a460019050949350505050565b60016020528060005260406000206000915090508060000154908060010154905082565b600081600160003373ffffffffffffffffffffffffffffffffffffffff1673ffffffffffffffffffffffffffffffffffffffff16815260200190815260200160002060000154121561063c5760009050610703565b600160008085815260200190815260200160002060060160006101000a81548160ff02191690831515021790555081600160003373ffffffffffffffffffffffffffffffffffffffff1673ffffffffffffffffffffffffffffffffffffffff16815260200190815260200160002060000160008282540392505081905550823373ffffffffffffffffffffffffffffffffffffffff167fbcf185128fcb361ee313a84dc1251d03721e8db930a9f0d740620bc02f728cc060405160405180910390a3600190505b929150505600a165627a7a72305820f860a450343faf90b44d68db0ef3fe997a7f481ceb346eae7749ec4afeb87c070029",
  "source": "pragma solidity ^0.4.24;\n\ncontract Insurance {\n    struct FlightInsurance {\n        int insuranceId;\n        string name;\n        int awardLP;\n        int costSGD;\n        int costLP;\n        string info;\n        bool active;\n    }\n\n    struct Profile {\n        int points;\n        int balance;\n    }\n\n    mapping(int => FlightInsurance) public types;\n    mapping(address => Profile) public profile;\n\n    int public insuranceTypesCount;\n\n    event TransferSGD(\n        address indexed _from, \n        address indexed _to, \n        int _value,\n        int indexed insuranceinsuranceId\n    );\n\n    event TransferLP(\n        address indexed _from, \n        int indexed insuranceinsuranceId\n    );\n\n    constructor() public {\n        addInsurance(\"One-Way\", 10, 20, 100, \"SGD$20 or LP100\");\n        addInsurance(\"Round-Trip\", 30, 30, 150, \"SGD$30 or LP150\");\n    }\n\n    function addInsurance (string name, int awardLP, int costSGD, int costLP, string info) private {\n        insuranceTypesCount ++;\n        types[insuranceTypesCount] = FlightInsurance(insuranceTypesCount, name, awardLP, costSGD, costLP, info, false);\n    }\n\n    function buyWithSGD (int insuranceId, address receiver, int awardLP, int costSGD) public returns(bool sufficient){\n        // if (profile[msg.sender].balance < costSGD) return false;\n        types[insuranceId].active = true;\n        profile[msg.sender].points += awardLP;\n        profile[msg.sender].balance -= costSGD;\n        // profile[receiver] += costSGD;\n\n        emit TransferSGD(msg.sender, receiver, costSGD, insuranceId);\n        return true;\n    }\n\n    function buyWithLP (int insuranceId, int costLP) public returns(bool sufficient){\n        if (profile[msg.sender].points < costLP) return false;\n\n        types[insuranceId].active = true;\n        profile[msg.sender].points -= costLP;\n\n        emit TransferLP(msg.sender, insuranceId);\n        return true;\n    }\n}",
  "sourcePath": "/Users/kaha/repos/DApp_Project/insurance/contracts/Insurance.sol",
  "compiler": {
    "name": "solc",
    "version": "0.4.24+commit.e67f0147.Emscripten.clang"
  },
  "schemaVersion": "2.0.1",
  "updatedAt": "2018-12-06T04:41:55.586Z"
}